:10080000E4F5B07F3812093A120948D293D292D255
:1008100091D290C297C296C295C2942090051208B8
:1008200041800E209105120872800620920812085D
:10083000A312092B80D52093D21208D412092B8041
:01084000CAED
:0E093A008FB0C2A0C2A1D2A212091CC2A2227A
:100905008F0812094812091C8508B0D2A0C2A1D2CD
:07091500A212091CC2A2227C
:0E091C00E4FFFE0FBF00010EBE3AF8BF98F5D3
:01092A0022AA
:0E092B00E4FFFE0FBF00010EBE1BF8BF58F523
:01093900229B
:0D0948007F0112093A12091C7F0C02093AC6
:10084100D297D296D295D294C293C292C291C290BB
:100851002094047F3780132095047F34800C2096E8
:10086100047F3180052097087F2A12090512092B80
:010871002264
:10087200D297D296D295D294C293C292C291C2908A
:100882002094047F3880132095047F35800C2096B5
:10089200047F3280052097087F3012090512092B48
:0108A2002233
:1008A300D297D296D295D294C293C292C291C29059
:1008B3002094047F3980132095047F36800C209682
:1008C300047F3380052097087F2312090512092B23
:0108D3002202
:1008D400D297D296D295D294C293C292C291C29028
:1008E4002094047F4180132095047F42800C20963D
:1008F400047F4380052097087F4412090512092BC1
:0109040022D0
:030000000209559D
:0C095500787FE4F6D8FD758108020800E8
:00000001FF
